:10000000BFCC44C0CFC442C003C540C038C23EC00C
:100010003DC0B1C43BC0E9C139C038C037C036C0EB
:1000200035C0000039003600000000000004030263
:1000300001000000003B00380000003A00370001DA
:100040000101010101010102020201020408102064
:1000500040800402010011241FBECFE5D2E0DEBFC4
:10006000CDBF20E0A6E6B0E001C01D92AD3FB207D3
:10007000E1F710E0A0E6B0E0EEEDF4E102C005909B
:100080000D92A636B107D9F7D5D427CAB9CF80913A
:10009000F6002091F70090E001968770992730E0F4
:1000A0008217930789F0E091F6008091AD00F0E0AF
:1000B000EC56FF4F828F8091F60090E0019687709A
:1000C00099278093F600089581E08093F8000895C1
:1000D0008091F6002091F70090E0019687709927B3
:1000E00030E08217930781F0E091F600F0E0EC56E3
:1000F000FF4F8FEF828F8091F60090E0019687701E
:1001000099278093F600089581E08093F800089580
:100110009C013695279583E083BF82E089BF8DE7F8
:1001200086BF12BE99B7926099BF10926700109275
:10013000660080916600909167008217930730F403
:1001400090918D00911102C0A895F3CF0895CF939F
:10015000DF93E4E9F0E0178A148A138A168A158A75
:10016000108E118E1092F6001092F7001092F80087
:1001700088E0AEEAB0E0ED0119928A95E9F781E0F6
:10018000828BDF91CF910895FF920F931F93CF93AE
:10019000DF93CDB7DEB728970FB6F894DEBF0FBE5A
:1001A000CDBF88E0E3E8F0E0DF011D928A95E9F732
:1001B0009091F6008091F700981302C010E035C0CE
:1001C000E091F700F0E0EC56FF4F128D1F3F89F0F1
:1001D000E091F700F0E023E0EE0FFF1F2A95E1F732
:1001E000EA54FF4F88E0DE01119601900D928A9546
:1001F000E1F78091F70090E001968770992780934E
:10020000F7001F3F11F41FEF10C08091F800882302
:1002100009F482C01092F8007FC08111F4CF4150E0
:10022000510983E890E03AD9115011501E3F08F06F
:1002300087C04091830050E060E070E0BA0155272C
:10024000442780918500480F511D611D711D00914B
:10025000840010E0102F0027012E000C220B330B1E
:10026000400F511F621F731F809178009091790099
:10027000A0917A00B0917B00481759076A077B0765
:1002800009F45EC080917F0090918000A091810070
:10029000B0918200892B8A2B8B2B41F440937F00F5
:1002A00050938000609381007093820080917F0062
:1002B00090918000A0918100B09182004817590769
:1002C0006A077B07E9F5C29A90918E00923021F47B
:1002D00081E08093930006C0809192008C7F8F5FB5
:1002E0008093920080918600282F237030E0215067
:1002F00031092230310570F4282F207F923019F413
:100300009093930006C0809192008C7F8E5F8093C3
:100310009200F22EC29814C0112309F44FCFBE01EF
:100320006F5F7F4FFB0180E0412F50E09F01261B54
:10033000370B241735070CF070CF91918927F6CF32
:100340008F2D28960FB6F894DEBF0FBECDBFDF917C
:10035000CF911F910F91FF90089586E090E071D7A3
:1003600025E0EFE8F0E0DC0101900D922A95E1F73D
:100370003091900020918F00232730919100232706
:10038000309192002327309193002327FC0125838D
:10039000209197002111FCCF26E0FC01ADE9B0E0EF
:1003A00001900D922A95E1F71092960021E020939A
:1003B00098001092990010929A0010929C0036E0DA
:1003C00030939B0020939700D1C71092A600DF9A2C
:1003D000C4DFBDDE1092A600C0DFDF9880919700D9
:1003E0008111FCCFB4CE6BC862C81F920F920FB6BA
:1003F0000F9211242F933F938F939F93AF93BF93AB
:1004000080916D0090916E00A0916F00B09170008E
:1004100030916C0026E0230F2D3720F40296A11DA9
:10042000B11D05C029E8230F0396A11DB11D20931E
:100430006C0080936D0090936E00A0936F00B0935A
:1004400070008091680090916900A0916A00B0915D
:100450006B000196A11DB11D809368009093690007
:10046000A0936A00B0936B00BF91AF919F918F9161
:100470003F912F910F900FBE0F901F9018951F92D4
:100480000F920FB60F9211242F933F934F935F93C8
:100490006F937F938F939F93AF93BF93EF93FF934C
:1004A000809195008F5F80939500809194008823C0
:1004B000D9F0809195008531B8F010929500809127
:1004C00097008230A9F58091960081508093960024
:1004D0008091960087FF04C08AE188BD1092960043
:1004E000809196008823B1F08091A7009091A80098
:1004F00001969093A8008093A7008091A60088237E
:1005000009F428C28091A7009091A800059708F0EF
:10051000C3C020C220919C0080919B00022E000C41
:10052000330B90E0281739070CF0B2C083E0B1C05C
:100530008330B8F48823C1F2813051F59091960050
:100540009150909396009091960097FF04C09DE083
:1005500098BD80939600809196008111C5CF82E06E
:1005600098C08430C1F050F1853091F480919600AC
:100570008150809396008091960087FF05C08AE1A4
:1005800088BD82E080939600809196008111ACCF67
:1005900010929700A9CF8091960081508093960089
:1005A0008091960087FF04C08DE088BD1092960070
:1005B00080919600811198CF85E06BC08091960064
:1005C0008150809396008091960087FF31C0809182
:1005D00098008823A9F08091990081110AC0E091C8
:1005E0009C000E2E000CFF0BEC56FF4F8185809374
:1005F0009A008DE088BD20919A003091990016C034
:100600008AE188BD20919A003091990080E890E0BD
:1006100002C0959587953A95E2F730E082239323BF
:10062000892B21F081E08093960002C01092960001
:1006300080919600811158CF9091980081E0892790
:100640008093980080919800882309F44DCF809181
:1006500099008F5F8093990080919900883008F409
:1006600043CF80919C008F5F80939C0010929900F3
:1006700020919C0080919B00022E000C330B90E097
:10068000281739072CF480919C0088300CF42CCF6B
:1006900084E08093970028CF1092A8001092A700C2
:1006A0008091A9009091AA0001969093AA0080934E
:1006B000A9008091A9009091AA00883C910530F092
:1006C00088EC90E09093AA008093A9008091A50007
:1006D00090E0FC01E85DFF4F2491FC01E65BFF4FD9
:1006E0003491FC01E15CFF4FE491EE2341F12223C0
:1006F000B1F0223089F028F4213089F480B78F7767
:100700000DC0233029F0243051F48FB58F7D02C005
:100710008FB58F778FBD03C080B78F7D80BFF0E02E
:10072000EE0FFF1FEE5DFF4FA591B491EC91E32317
:1007300031E020E009F430E0832F922F02C080E006
:1007400090E02091AB00223039F128F4222349F0C7
:10075000213081F0F8C02330A9F1243009F449C0D8
:10076000F2C0892B09F0F6C01092AA001092A900DD
:1007700081E0E6C0019709F0EDC08091A900909159
:10078000AA00079708F4E0C08091A9009091AA0000
:100790000B9708F4D0C0D8C0892B09F0DBC080913A
:1007A000A9009091AA00039708F4CEC08091A900F7
:1007B0009091AA00079708F0C7C01092AD00109260
:1007C000AC00A6C0019709F0C5C08091A900909126
:1007D000AA00039708F4A2C08091A9009091AA00F2
:1007E000079708F09BC01092AA001092A90084E01D
:1007F000A7C0892BB1F58091A9009091AA00039719
:10080000C8F18091A9009091AA00079798F5A0914E
:10081000F6008091AD00E091F6009091AD0020913E
:10082000AC00F0E053E0EE0FFF1F5A95E1F7EC56F5
:10083000FF4FE90FF11DB0E063E0AA0FBB1F6A95FF
:10084000E1F7AC56BF4FA80FB11D80E890E002C0A1
:10085000959587952A95E2F7809592969C918923A4
:100860003FC08091A9009091AA000B9708F472C034
:100870000EDC6AC08091A9009091AA00079708F445
:1008800062C08091A9009091AA000B9708F05BC00C
:10089000A091F6008091AD00E091F6009091AD003E
:1008A0002091AC00F0E033E0EE0FFF1F3A95E1F746
:1008B000EC56FF4FE90FF11DB0E043E0AA0FBB1F5C
:1008C0004A95E1F7AC56BF4FA80FB11D80E890E004
:1008D00002C0959587952A95E2F792969C91892B6F
:1008E00082A38091AC008F5F8093AC008091AC00BC
:1008F000883070F01092AC008091AD008F5F8093D3
:10090000AD008091AD00883018F0E2DB1092AB00B2
:100910001092AA001092A90083E012C08091A90051
:100920009091AA00079778F08091A9009091AA0071
:100930000B9748F4ACDB1092AA001092A90082E059
:100940008093AB0007C0C4DB1092AA001092A900EC
:100950001092AB00FF91EF91BF91AF919F918F915A
:100960007F916F915F914F913F912F910F900FBEAB
:100970000F901F9018951F920F920FB60F9211248F
:100980008F939F938091660090916700019690935A
:100990006700809366009F918F910F900FBE0F901C
:1009A0001F9018951F920F920FB60F9211248F93DC
:1009B00080918E00811119C0C99902C080E303C0E3
:1009C000CA9907C080E280937C0081E080938D000B
:1009D00019C0CC9902C080E1F6CFC89902C080EA64
:1009E000F2CFCE990FC080EBEECFC99B08C0CA9B57
:1009F00006C0CC9B04C0C89B02C0CE9903C081E056
:100A000080938C008F910F900FBE0F901F901895C0
:100A10001F920F920FB60F9211248F938CB5809373
:100A20007D0081E080937E008F910F900FBE0F902C
:100A30001F901895789480B7826080BF80B78160DE
:100A400080BF83B7826083BF83B7816083BF89B76C
:100A5000816089BF1EBC8EB582608EBD8EB58160FF
:100A60008EBD8FB581608FBD329A319A3098379A9A
:100A700090EA9ABB84E087BB27E52BBB9ABB87BB78
:100A80008BB38F758BBBC298CA9906C0CC9904C032
:100A9000C99902C0CE9BB5C280E18BBF87E582BBFE
:100AA00083E08093A50019BC83E38FBD8AE18EBDEE
:100AB0002AE130E03BBD2ABD2DE030E039BD28BD44
:100AC00092E09CB988BD7894109294001092A60090
:100AD000EFE4F0E02491E4E4F0E08491882399F0DD
:100AE00090E0880F991FFC01E75CFF4FA591B4913E
:100AF000FC01ED5CFF4F859194918FB7F894EC91D8
:100B0000E22BEC938FBF8AE188BD10929500109282
:100B100096001092970081E08093980010929900BF
:100B200010929A0010929B009FEF90939C008093EC
:100B300094000DDB80E090E057DC082F81E090E02E
:100B400053DCC82F82E090E04FDC402F50E060E0A3
:100B500070E09A01112700274C2F50E060E070E010
:100B6000762F652F542F4427400F511F621F731F8C
:100B7000480F511D611D711D4093780050937900FD
:100B800060937A0070937B007894D0E49D2E08E007
:100B900010E0D4E080E0E82E80E0F82E92E0892E8C
:100BA000DD24D394E3E2CE2EF7E1BF2EA3E0AA2EFC
:100BB000A895C0918E00C13009F475C038F0C230DC
:100BC00009F476C1C33009F4EBC115C280918D00E0
:100BD000882381F180917C00803A29F0803BA9F440
:100BE000A0928E0008C280928E0080917800909131
:100BF000790020917A0020938F0090939000809349
:100C0000910087E090E0F0DB10C0D0928E008091E0
:100C100078009091790020917A0020938F00909332
:100C200090008093910080917C00809392001092BC
:100C30009300E1C1C0BE80918D00882311F0C2E80D
:100C40000EC0CCBF89E190E063DACB5FC23899F780
:100C5000F6CFCCBF89E190E05BDAC55021F08091FE
:100C60008D008823B1F380B78F7D80BF84B7877FE5
:100C700084BF81B5886181BDB1BC81B5806481BD0F
:100C800085B7877E806185BF85B7806285BF789490
:100C900085B7806285BF889585B78F7D85BF85B70D
:100CA0008F7D85BFA8C180918D00882329F04FDA00
:100CB00010928D0010928B00F89414BE81B588615B
:100CC00081BD91BC789480917E008823E1F31092DD
:100CD0007E0080917D00877090E075E0880F991FFD
:100CE0007A95E1F715DA8091F6002091F70090E00F
:100CF0000896821B9109B8017DD2882319F044DA45
:100D0000C82F01C0C0E061DB84E690E001DA809189
:100D100086008370823009F0A5C0809192008370B4
:100D2000823009F09FC01092A6004FDB82E390E072
:100D3000EFD94BDB90919200907FC03249F0C033E5
:100D400069F0C03181F4903281F0903361F40FC0CA
:100D5000903169F0C1E0903331F40AC0903239F03B
:100D6000C1E0903129F0C0E003C0C1E001C0C2E0A1
:100D700084E090E039DB782E85E090E035DB40912F
:100D8000840050E0542F442790918500490F511D55
:100D9000272D30E0322F2227280F311D421753070D
:100DA00059F486E090E020DB282F30E02E3031052A
:100DB000DCF561E0680F10C06091830083E090E093
:100DC00012DB6091840084E090E00DDB609185008F
:100DD00085E090E008DB60E086E090E004DBC13075
:100DE00091F0C230D9F0C298DF9AC4E184E690E075
:100DF0008FD988B38D2788BB8BB380588BBBC150EC
:100E0000A9F7C7981BC087E090E0EEDA61E0680FB1
:100E100087E090E0E8DAC298DF9A02C0DF98C29AD1
:100E200080ED97E075D90AC0CAE084E690E070D9F9
:100E300088B38D2788BBC150C1F7C298DF98C2988C
:100E400010928E0010928300109284001092850000
:100E50001092860010927F00109280001092810004
:100E60001092820080918B008F5F80938B008F3176
:100E7000A0F010928E0010928B00109283001092BE
:100E80008400109285001092860010927F001092CC
:100E90008000109281001092820080918C00882343
:100EA00009F4A7C080918B00843008F08EC1A1C0E6
:100EB00080918D00882329F04AD910928D001092DC
:100EC0008B008091F6002091F70090E00896821B3D
:100ED0009109B8018FD1811157D977DA8AEF90E063
:100EE00017D980918600823089F5809193008230F5
:100EF00069F51092A60060E087E090E074DA60E0A7
:100F000083E090E070DA60E084E090E06CDA60E02A
:100F100085E090E068DA60E086E090E064DA1092C4
:100F20008E0010928300109284001092850010921F
:100F3000860010927F001092800010928100109223
:100F40008200DF9A80ED97E0E3D8DF9880918B00F4
:100F50008F5F80938B008531C8F010928E001092C5
:100F60008B001092830010928400109285001092E2
:100F7000860010927F0010928000109281001092E3
:100F80008200C29A80ED97E0C3D8C29880918C000D
:100F9000882379F180918B00833008F016C129C035
:100FA00087E090E021DA782E10928D008823C1F03E
:100FB00084EF91E0ADD8C0E0DF9A84EF91E0A8D84B
:100FC000DF9884EF91E0A4D880918C00882311F001
:100FD000C33058F410928C00CF5FC711EDCF05C01D
:100FE000C29A8EEE92E094D8C29810928D00109220
:100FF0008E0010928C00E114F10409F4D9CD00D8D0
:10100000CFCDFFEF24E33CE0F15020403040E1F74A
:1010100000C00000109277001092760090E081E00E
:101020002091760030917700253031050CF055C0C5
:10103000DF9AC298CA9905C020917500222309F44D
:1010400083C02FE738E341E0215030404040E1F7D2
:1010500000C00000C89905C020917400222309F443
:1010600080C0EFE7F8E321E0E150F0402040E1F7F5
:1010700000C00000DF98C29AC99905C02091730092
:10108000222309F47BC03FE748E3E1E031504040D0
:10109000E040E1F700C00000CC9905C0209172004B
:1010A000222309F478C0FFE728E331E0F150204023
:1010B0003040E1F700C00000CE9905C020917100DA
:1010C000222309F475C020917600309177002530F5
:1010D000310519F4DF98C29897E49F5F963408F4BD
:1010E0009FCF963411F4C29ADF9880917600909148
:1010F0007700059709F0D0CC80ED97E0C29ADD9A91
:101100004DE14A95F1F70000DD98EAE1EA95F1F743
:1011100000C0019799F7C298FFE72AE136E0F15045
:1011200020403040E1F700C000008AEFEFE1FEE42C
:101130003197F1F700C00000CB9902C0DF9AFECFD3
:101140008150A1F7C29AFECF80937500209176005E
:10115000309177002F5F3F4F3093770020937600D8
:1011600070CF8093740020917600309177002F5FCC
:101170003F4F309377002093760073CF80937300B6
:1011800020917600309177002F5F3F4F30937700AA
:101190002093760078CF8093720020917600309172
:1011A00077002F5F3F4F30937700209376007BCFFF
:1011B0008093710020917600309177002F5F3F4F30
:1011C00030937700209376007ECF10928E0010929D
:1011D0008B00109283001092840010928500109270
:1011E000860010927F001092800010928100109271
:1011F0008200FFCE97FB072E16F4009406D077FDF1
:1012000008D00BD007FC05D03EF4909581959F4FF8
:101210000895709561957F4F0895AA1BBB1B51E1FE
:1012200007C0AA1FBB1FA617B70710F0A61BB70B56
:10123000881F991F5A95A9F780959095BC01CD01FB
:101240000895CF93DF938230910510F482E090E00F
:10125000E091FB00F091FC0020E030E0C0E0D0E045
:10126000309711F14081518148175907C0F0481754
:10127000590761F482819381209719F09B838A83B7
:101280002BC09093FC008093FB0026C021153105F4
:1012900019F04217530718F49A01BE01DF01EF015C
:1012A0000280F381E02DDCCF2115310509F1281BE7
:1012B000390B2430310590F412968D919C9113973F
:1012C0006115710521F0FB019383828304C0909323
:1012D000FC008093FB00FD01329644C0FD01E20F4B
:1012E000F31F81939193225031092D933C933AC07F
:1012F0002091F9003091FA00232B41F420916200F3
:10130000309163003093FA002093F900209160003F
:10131000309161002115310541F42DB73EB7409160
:10132000640050916500241B350BE091F900F091A9
:10133000FA00E217F307A0F42E1B3F0B281739071A
:1013400078F0AC014E5F5F4F2417350748F04E0F21
:101350005F1F5093FA004093F9008193919302C06C
:10136000E0E0F0E0CF01DF91CF9108950F931F935C
:10137000CF93DF93009709F48CC0FC01329713825E
:1013800012820091FB001091FC000115110581F4FF
:1013900020813181820F931F2091F9003091FA0052
:1013A0002817390779F5F093FA00E093F90071C036
:1013B000D80140E050E0AE17BF0750F412962D91CF
:1013C0003C911397AD012115310509F1D901F3CFF6
:1013D0009D01DA013383228360817181860F971F1B
:1013E0008217930769F4EC0128813981260F371F92
:1013F0002E5F3F4F318320838A819B819383828339
:10140000452B29F4F093FC00E093FB0042C01396B7
:10141000FC93EE931297ED01499159919E01240F8F
:10142000351FE217F30771F480819181840F951FB6
:10143000029611969C938E938281938113969C932E
:101440008E931297E0E0F0E0D80112968D919C9176
:101450001397009719F0F8018C01F6CF8D919C91AC
:1014600098012E5F3F4F820F931F2091F90030911A
:10147000FA002817390769F4309729F41092FC0014
:101480001092FB0002C0138212821093FA000093A4
:10149000F900DF91CF911F910F910895FB01DC01BD
:1014A00002C001900D9241505040D8F70895E19943
:1014B000FECF9FBB8EBBE09A99278DB30895262F50
:1014C000E199FECF1CBA9FBB8EBB2DBB0FB6F89423
:1014D000E29AE19A0FBE01960895F894FFCF0000BA
:1014E000FD008000FFFFFFFFFFFFFFFFFFFFFFFF8B
:1014F000FFFFFFFFFFFFFFFFFFFFFFFFFFFFFFFFFC
:10150000FFFFFFFFFFFFFFFFFFFFFFFFFFFFFFFFEB
:10151000FFFFFFFFFFFFFFFFFFFFFFFFFFFFFFFFDB
:10152000FFFFFFFFFFFFFFFFFFFFFFFFFFFFFFFFCB
:10197000FFFFFFFFFFFFFFFFFFFFFFFF6CC3FFFF46
:1019800017C00403090412011001FF0000084F1BD7
:10199000140003020000000109021200010100808E
:1019A00032090400000000000000197A4005930C81
:1019B00011241FBECFE5D2E0CDBFDEBF10E0A0E610
:1019C000B0E001C01D92AC38B107E1F7A2C1DC0163
:1019D0008FEF9FEF332715C02D912827722F229567
:1019E0002727822F269526952827239522703217A0
:1019F00077952795822F8927972F76952795972773
:101A00008227615048F7809590950895E0DF8D9387
:101A10009D930895CF93CFB7CF93C395B09BE9F72C
:101A2000B09B09C0B09B07C0B09B05C0B09B03C072
:101A3000B09B01C0A7C0DF93C0916E00DD27CA58DC
:101A4000DF4FB09B02C0DF91EBCF2F930F931F931B
:101A500006B32FEF00FB20F94F933F9316B34FEFE0
:101A6000012700FB21F93BE031C04E7F012F16B367
:101A7000216028C0102F4D7F2260000006B329C0CE
:101A80004B7F2460012F000016B32BC016B3477F95
:101A900028602AC04F7E06B320612CC04F7D16B34C
:101AA00020622FC04F7B06B3206432C0422706B3AA
:101AB00049934FEF0000102710FB20F916B3137065
:101AC000C9F1297F91F2012700FB21F906B3237F99
:101AD00089F2315058F1102710FB22F916B3277EF6
:101AE00079F2012700FB23F92F7C81F206B310273E
:101AF00010FB24F92F7971F200C016B3012700FB07
:101B000025F92F7359F200C006B3102710FB26F9F0
:101B1000223040F200C016B3012700FB27F9243021
:101B200028F64F77206816B30000F9CF10E21ABFED
:101B300000271DC03B503195C31BD04010E21ABF97
:101B40000881033C19F10B3409F120916C001981D3
:101B5000110F1213EDCF093641F10D3211F0013E94
:101B600039F7CAE01AB715FD02C0CA95D9F7009334
:101B700074003F914F911F910F912F91DF91CAB740
:101B8000C5FD4BCFCF91CFBFCF9108952091740069
:101B9000222379F3109172001123E1F43430E2F042
:101BA0003093720020936D0017C0009172000130D5
:101BB0008CF40AE530916F0034FD10C000936F0083
:101BC000C1E6D0E00FC02795A8F45150A9F4220F28
:101BD0000000F9CF4AE503C042ED01C0432FC4E144
:101BE000D0E032E017B31360C09A17BB08B320E40B
:101BF00013E05F93012756E008BB279520F451506E
:101C000021F4220FF9CF012756E000003B5A08BB10
:101C1000D0F2279528F4515029F4220F0000F9CF73
:101C2000012756E0279508BB20F4515021F4220FDC
:101C3000F9CF012756E02991332308BB21F60C7F09
:101C400010917300110FC651D04008BB11F01093D2
:101C50006C0010E21ABF016017B31C7F402F4C7F4D
:101C60005F9100C000C008BB17BB48BB82CF2FEFFD
:101C7000B0E8A0E04AE0B1BF00008EE599E0B0997D
:101C8000FECFB09BFECF0197B099FDCF97FF03C069
:101C9000BA1B819501C0BA0FA69539F4A0E428F4C7
:101CA000281710F031B7282FA1E0415021F731BF9C
:101CB000000008959C01F2014114510411F42FEB2E
:101CC0003CEC81E0090180935700E895112482E003
:101CD000482E512C4E0E5F1E089514BE88E181BD22
:101CE00087E081BDB89A88EB9BE0ECE2F1E03197A8
:101CF000F1F70197D1F7B8988AE580936F008FEFDD
:101D00008093600080B5826080BD8BB780628BBF9E
:101D100008951F93CF93DF93D098D89A88EB9BE0D8
:101D20000197F1F781B7282EC89B06C0EDE7F9E1CE
:101D3000E491EF3F09F038C1D0DF84E087BB77241E
:101D4000332444245524C0EADFE014E686B390E04F
:101D500083709070892B09F014E6115029F41092C9
:101D6000730010926C0083DF0AB605FE05C052DED8
:101D700080E28ABF772402C0219741F7A895832D7E
:101D8000823069F4E0E8F9E1E054F04083E08093C8
:101D90005700E8953097C1F74424552412C0803489
:101DA00059F4F201329789E1E038F80750F485E000
:101DB00080935700E89505C0843019F4CD2B11F4B9
:101DC000EEC0332490917200935097FDA0C0809193
:101DD0006D008D3209F099C0983009F096C083ECFF
:101DE000809361008AE580936F0080917700807610
:101DF000909178008823A9F1992341F48AEA99E126
:101E0000909371008093700096E074C0913079F4E3
:101E10004114510409F46DC080917B0040EC442EC4
:101E2000482250907C0081E187BFE89562C09330E2
:101E3000A1F48091790090917A003CDF80917B0041
:101E400090917C0037DF842D90E08F739070892B08
:101E500009F04FC030E4332E4CC02FE3322E39222C
:101E600048C02091790010926A00992331F41092B1
:101E70006B002AE630E092E037C0953019F42093E9
:101E800073002FC09630E9F480917A00813019F404
:101E900086E899E104C0823041F488E999E19093A1
:101EA00071008093700092E125C0833011F52223E8
:101EB00001F582E899E1909371008093700094E0BD
:101EC00019C0983019F425E730E009C0993019F4A9
:101ED0002093750006C09A3021F42AE630E091E0A4
:101EE00003C02AE630E090E0309371002093700048
:101EF00001C090E080917E00882329F480917D00CC
:101F0000891708F4982F90936000109272008091C6
:101F10006F0084FF30C0809160008F3F61F1182F07
:101F2000893008F018E0811B809360008091610087
:101F300098E8892780936100112381F0E091700077
:101F4000F0917100912FA2E6B0E084918D933196CB
:101F50009150D9F7F0937100E093700082E690E021
:101F6000612F54DD612F6C5F6C3019F08FEF80931F
:101F7000600060936F000894611C711C862D8C7446
:101F800011F0C29801C0C29A0AB605FEDCCE85E106
:101F9000B09B85E18150E1F780E28ABFD4CEBA9848
:101FA000C2989BDE1BBE10BCD89821BE0000E6CCB8
:101FB000FFCFFFFFFFFFFFFFFFFFFFFFFFFFFFFF61
:101FC000FFFFFFFFFFFFFFFFFFFFFFFFFFFFFFFF21
:101FD000FFFFFFFFFFFFFFFFFFFFFFFFFFFFFFFF11
:101FE000FFFFFFFFFFFFFFFFFFFFFFFFFFFFFFFF01
:101FF000FFFFFFFFFFFFFFFFFFFFFFFFFFFFFFFFF1
:00000001FF
